S0180000546865726D6F737461745F736C6176652E7372656367
S113000012C024C023C022C021C020C01FC01EC0F3
S11300101DC01CC01BC01AC019C018C017C016C010
S113002015C014C013C011241FBECFE5D4E0DEBF39
S1130030CDBF10E0A0E6B0E0EEE5F1E002C005902F
S11300400D92A038B107D9F702D087C0D9CFCF938A
S1130050DF93CDB7DEB728970FB6F894DEBF0FBE97
S1130060CDBF8CE090E044D00DD0BE016A5F7F4FDD
S1130070CE01019610D0BE016A5F7F4FCE0101967A
S113008051D0F3CF80E187BB80E48DB90895779B8D
S1130090FECF8FB10895CF92DF92EF92FF920F932C
S11300A01F93CF93DF936C017B01C0E0D0E007C0C6
S11300B086010C0F1D1FEBDFF80180832196C530EC
S11300C0D105B4F3C0E0D0E007C087010C0F1D1FB9
S11300D0DEDFF80180832196C330D105B4F3DF91CC
S11300E0CF911F910F91FF90EF90DF90CF900895E3
S11300F090BD89B98BB182608BB988E18AB98EE8E9
S113010080BD08955D9BFECF8CB90895CF93DF9396
S1130110EC0102C0F7DF219688818111FBCFDF91CA
S1130120CF9108950F931F93CF93DF938C01EB012D
S113013080E690E0EBDFC801E9DF8EE690E0E6DFE1
S113014082E790E0E3DFCE01E1DF8DE790E0DEDFE0
S1110150DF91CF911F910F910895F894FFCF86
S113015E54656D70657261747572653A2000204342
S113016E0D0048756D69646974793A2000250D0097
S9030000FC
