S01F0000546865726D6F737461745F5457495F5350495F554152542E73726563A1
S1130000D0C0E2C0E1C0E0C0DFC0DEC0DDC0DCC003
S1130010DBC0DAC0D9C0D8C0D7C0D6C0D5C0D4C020
S1130020D3C0D2C0D1C007634236B79BD8A71A3910
S1130030685618AEBAAB558C1D3CB7CC5763BD6D32
S1130040EDFD753EF6177231BF000000803F0800D9
S11300500000BE922449123EABAAAA2ABECDCCCC43
S11300604C3E00000080BEABAAAAAA3E00000000DD
S1130070BF000000803F0000000000084178D3BBAF
S11300804387D1133D190E3CC3BD4282AD2B3E685C
S1130090EC8276BED98FE1A93E4C80EFFFBE01C44D
S11300A0FF7F3F000000000000407A10F35A00A0D8
S11300B0724E18090010A5D4E80000E8764817002D
S11300C000E40B54020000CA9A3B000000E1F5056D
S11300D0000080969800000040420F000000A086B7
S11300E001000000102700000000E80300000000E9
S11300F06400000000000A0000000000010000008D
S113010000002C76D888DC674F0823DFC1DFAE59A6
S1130110E1B1B796E5E3E453C63AE651997696E839
S1130120E6C28426EB898C9B62ED407C6FFCEFBCBD
S11301309C9F40F2BAA56FA5F490055A2AF75C93E8
S11301406B6CF9676DC11BFCE0E40D47FEF520E61E
S1130150B500D0ED902E0300943577050080841E01
S1130160080000204E0A000000C80C333333330F5C
S1130170986E12831141EF8D2114893BE65516CFF9
S1130180FEE6DB18D1844B381BF77C1D901DA4BB05
S1130190E424203284725E228100C9F124ECA1E5BA
S11301A03D2711241FBECFE5D4E0DEBFCDBF10E054
S11301B0A0E6B0E0E0E0F7E102C005900D92A037C0
S11301C0B107D9F7E9D19ACA1BCFE199FECF9FBBFA
S11301D08EBB6DBB8CB384608CBB8CB382608CBBD8
S11301E00895E199FECF9FBB8EBB8CB381608CBB1D
S11301F08DB3089582E080B981B18C7F81B908956F
S113020084EA86BF06B607FEFDCF089584E986BF5B
S1130210089583B984E886BF06B607FEFDCF089526
S113022084EC86BF06B607FEFDCF83B1089584E84B
S113023086BF06B607FEFDCF0895EF92FF920F9397
S11302401F93CF93DF938C01EB01DADF80E8E1DFCA
S113025083EFDFDF8BE792E90197F1F700C000003D
S1130260CFDF81E8D6DFDCDFF82EDADFE82EDFDF50
S1130270CDDF6F2D70E0762F66276E2980E090E049
S1130280ABD422E538EB4FE253E45CD520E030E018
S113029040E857E357D526E636E64BE352E402D46A
S11302A0F8016083718382839383AADF80E8B1DFDE
S11302B085EFAFDF8BE792E90197F1F700C000000B
S11302C09FDF81E8A6DFACDF182FAADF082FAFDF9E
S11302D09DDF612F70E0762F6627602B80E090E031
S11302E07BD420E030E04AEF52E42CD520E030E02B
S11302F040E857E327D520E030E040EC50E4D2D387
S1130300688379838A839B83DF91CF911F910F91B7
S1130310FF90EF90089581B38C6F81BB82B383709B
S113032082BB089582BB92B39B7F92BB92B39860C9
S113033092BB90E19A95F1F700C092B3977F92BB7C
S11303408295807F82BB82B38B7F82BB82B38860BD
S113035082BB80E18A95F1F700C082B3877F82BBBC
S113036090E19A95F1F700C0089585EA9EE001971F
S1130370F1F700C0000080E3D5DF81EE94E001973F
S1130380F1F700C0000080E3CDDF91E29A95F1F728
S1130390000080E3C7DF89EF90E00197F1F700C028
S11303A0000082E0BFDF83EF91E00197F1F700C026
S11303B0000088E2B7DF89EF90E00197F1F700C011
S11303C000008CE0AFDF89EF90E00197F1F700C007
S11303D0000081E0A7DF83EF91E00197F1F700C00F
S11303E0000086E09FDF89EF90E00197F1F700C0FD
S11303F00000089581E096DF83EF91E00197F1F723
S113040000C00000089582BB92B3946092BB92B383
S1130410986092BB90E19A95F1F700C092B3977FF0
S113042092BB8295807F82BB82B3846082BB82B39D
S1130430886082BB80E18A95F1F700C082B3877F30
S113044082BB90E19A95F1F700C00895882319F0D2
S1130450813029F00895862F806864DF089580E450
S1130460860F80685FDF08950F931F93CF93DF9308
S11304708C01C0E0D0E002C0C6DF2196F801EC0F89
S1130480FD1F80818111F8CFDF91CF911F910F91D2
S113049008954F925F926F927F92AF92BF92CF92E4
S11304A0DF92EF92FF920F931F93CF93DF93CDB719
S11304B0DEB764970FB6F894DEBF0FBECDBF6D876D
S11304C07E878F87988B29013A01E98AFA8A0B8BF8
S11304D01C8B90DF60E080E0B9DF80E690E0C4DF51
S11304E08E010F5F1F4F21E042E06D857E858F8571
S11304F098897FD6C801B8DF84E690E0B5DF6AE06A
S113050080E0A4DF86E690E0AFDF0A5F1F4F20E0C3
S113051042E0C301B2016DD6C801A6DF89E690E0CE
S1130520A3DF60E081E092DF8BE690E09DDF065080
S1130530110921E042E069897A898B899C8959D61D
S1130540C80192DF84E690E08FDF6AE081E07EDF1D
S113055086E690E089DF0A5F1F4F20E042E0C60193
S1130560B50147D6C80180DF89E690E07DDF649657
S11305700FB6F894DEBF0FBECDBFDF91CF911F91B0
S11305800F91FF90EF90DF90CF90BF90AF907F904E
S11305906F905F904F900895CF93DF93CDB7DEB700
S11305A02C970FB6F894DEBF0FBECDBFB4DEDDDEF0
S11305B066D2D2D11FDE78D181E090E012DE682FBE
S11305C070E080E090E008D32B013C0180E090E0F3
S11305D008DE682F70E080E090E0FED269877A87B9
S11305E08B879C8719821A821B821C821D821E8221
S11305F01F821886BE016B5F7F4FCE0101961DDE00
S1130600AD80BE80CF80D884E980FA800B811C81C4
S113061029853A854B855C85C301B2013ADFAD80FB
S1130620BE80CF80D884E980FA800B811C81298523
S11306303A854B855C85C301B2019BD12D813E81F6
S11306404F81588569817A818B819C8136D18099CB
S113065026C0809BFECF20E030E040E85FE3698560
S11306607A858B859C851FD269877A878B879C873F
S113067020E030E048EC52E461D3181644F480E002
S113068090E0A8ECB2E489879A87AB87BC87698538
S11306907A858B859C8574D280E090E096DD819983
S11306A021C0819BFECF20E030E040E85FE3698514
S11306B07A858B859C85F6D169877A878B879C8719
S11306C020E030E0A90153D2882324F419861A8645
S11306D01B861C8669857A858B859C8551D280E032
S11306E090E073DD9B9920C09B9BFECF2DEC3CECEE
S11306F04CEC5DE3C301B201D6D12B013C0120E0F7
S113070030E040EF52E41AD3181644F40F2E412C73
S1130710512CF0EF6F2EF2E47F2EF02DC301B201C5
S11307202FD281E090E051DDB79964CFB79BFECF23
S11307302DEC3CEC4CEC5DE3C301B201B3D12B01D5
S11307403C0120E030E040E252EC11D2882344F432
S11307500F2E412C512CF0E26F2EF2EC7F2EF02D57
S1130760C301B2010DD281E090E02FDD43CF61508F
S1130770710920E030E00EC0DC01A20FB31F4C91E0
S1130780FC01E60FF71F50815C9340832F5F3F4FBE
S113079061507109261737077CF308950F931F934F
S11307A0CF93DF938B019A01C0E0D0E00BC0F80136
S11307B0EC0FFD1F6AE070E0F5D4805D8083862F26
S11307C0972F2196009799F706C0F801EC0FFD1FAB
S11307D080E380832196C217D307BCF3BE01C8010E
S11307E0C6DFF801EC0FFD1F1082CE01DF91CF911F
S11307F01F910F9108954F925F926F927F928F9203
S11308009F92AF92BF92EF92FF920F931F93CF9359
S1130810DF932B013C017A018901ADD14B015C01CD
S1130820072E000C880B990BD9D19B01AC01C30195
S1130830B20138D12B013C0140E050E0B701C401C2
S1130840ADDFEC010115110501F1F701E80FF91F06
S11308508EE28083B801012E000C880B990BBED167
S11308609B01AC0160E070E080E291E4CED29B0198
S1130870AC01C301B20166D22196CE0DDF1D7BD13E
S1130880DC01CB01A801BE0189DFDF91CF911F916B
S11308900F91FF90EF90BF90AF909F908F907F90BB
S11308A06F905F904F9008958CE287BB81E58DB97E
S11308B008958FB9779BFECF0895CF92DF92EF9280
S11308C0FF920F931F93CF93DF93CDB7DEB7289793
S11308D00FB6F894DEBF0FBECDBF69017A0121E0E7
S11308E030E0AE014F5F5F4F86DF00E010E00AC0EA
S11308F0E1E0F0E0EC0FFD1FE00FF11F8081D9DF94
S11309000F5F1F4F053011059CF320E030E0AE016E
S11309104A5F5F4FC701B6016EDF00E010E00AC016
S1130920E6E0F0E0EC0FFD1FE00FF11F8081C1DF76
S11309300F5F1F4F033011059CF328960FB6F894F0
S1130940DEBF0FBECDBFDF91CF911F910F91FF90FE
S1130950EF90DF90CF90089584B3876084BB85B314
S1130960887F85BB87B3836487BB88B38C7B88BB54
S113097008954F925F926F927F92AF92BF92CF92FF
S1130980DF92EF92FF920F931F93CF93DF93CDB734
S1130990DEB728970FB6F894DEBF0FBECDBF2B018C
S11309A03C012D833E834F835887E982FA820B836F
S11309B01C83A8019701C2D118163CF485B3816049
S11309C085BB85B3897F85BB1FC029813A814B8153
S11309D05C81C301B201CBD088233CF485B384602D
S11309E085BB85B38C7F85BB0FC029813A814B8140
S11309F05C81C301B201BBD0811106C085B38260A2
S1130A0085BB85B38A7F85BB6D817E818F81988507
S1130A10B2D03B01C601B501AED0661677063CF4F0
S1130A2088B3816088BB88B38D7B88BB13C066158F
S1130A3077053CF488B3806488BB88B38C7F88BB1B
S1130A4009C06616770631F488B3826088BB88B320
S1130A508E7B88BB28960FB6F894DEBF0FBECDBF41
S1130A60DF91CF911F910F91FF90EF90DF90CF9086
S1130A70BF90AF907F906F905F904F90089584B334
S1130A80877F84BB85B3886085BB87B38F7787BB3B
S1130A9088B3806888BB81B38C7F81BB82B3836059
S1130AA082BB08955058BB27AA270ED00DC1FED093
S1130AB030F003D120F031F49F3F11F41EF4F3C061
S1130AC00EF4E095E7FBE9C0E92F0FD180F3BA17E4
S1130AD0620773078407950718F071F49EF527C120
S1130AE00EF4E0950B2EBA2FA02D0B01B901900145
S1130AF00C01CA01A0011124FF27591B99F0593F89
S1130B0050F4503E68F11A16F040A22F232F342FD0
S1130B104427585FF3CF469537952795A795F0401E
S1130B205395C9F77EF41F16BA0B620B730B840B33
S1130B30BAF09150A1F0FF0FBB1F661F771F881FEB
S1130B40C2F70EC0BA0F621F731F841F48F4879543
S1130B5077956795B795F7959E3F08F0B3CF939532
S1130B60880F08F09927EE0F97958795089571D00F
S1130B7008F481E0089504D06894B111D9C00895AF
S1130B80BCD088F09F5790F0B92F9927B751A0F0A7
S1130B90D1F0660F771F881F991F1AF0BA95C9F70D
S1130BA012C0B13081F0C3D0B1E00895C0C0672F46
S1130BB0782F8827B85F39F0B93FCCF386957795BD
S1130BC06795B395D9F73EF49095809570956195A6
S1130BD07F4F8F4F9F4F0895E89409C097FB3EF4D1
S1130BE090958095709561957F4F8F4F9F4F992376
S1130BF0A9F0F92F96E9BB279395F69587957795F4
S1130C006795B795F111F8CFFAF4BB0F11F460FFB3
S1130C101BC06F5F7F4F8F4F9F4F16C0882311F00B
S1130C2096E911C0772321F09EE8872F762F05C01F
S1130C30662371F096E8862F70E060E02AF09A95BA
S1130C40660F771F881FDAF7880F9695879597F9AF
S1130C500895990F0008550FAA0BE0E8FEEF161649
S1130C601706E807F907C0F012161306E407F5079C
S1130C7098F0621B730B840B950B39F40A2661F010
S1130C80232B242B252B21F408950A2609F4A140B3
S1130C90A6958FEF811D811D089597F99F6780E8C0
S1130CA070E060E008959FEF80EC089500240A94BA
S1130CB01616170618060906089500240A94121633
S1130CC01306140605060895092E0394000C11F466
S1130CD0882352F0BB0F40F4BF2B11F460FF04C013
S1130CE06F5F7F4F8F4F9F4F089557FD9058440F6C
S1130CF0551F59F05F3F71F04795880F97FB991F77
S1130D0061F09F3F79F08795089512161306140633
S1130D10551FF2CF4695F1DF08C0161617061806C0
S1130D20991FF1CF86957105610508940895E8949B
S1130D30BB2766277727CB0197F908958ADF08F444
S1130D408FEF08950BD0C0CFB1DF28F0B6DF18F0D5
S1130D50952309F0A2CFA7CF1124EACFC6DFA0F3D1
S1130D60959FD1F3950F50E0551F629FF001729F3C
S1130D70BB27F00DB11D639FAA27F00DB11DAA1F5B
S1130D80649F6627B00DA11D661F829F2227B00DA8
S1130D90A11D621F739FB00DA11D621F839FA00D33
S1130DA0611D221F749F3327A00D611D231F849F83
S1130DB0600D211D822F762F6A2F11249F575040DA
S1130DC08AF0E1F088234AF0EE0FFF1FBB1F661F75
S1130DD0771F881F91505040A9F79E3F510570F02E
S1130DE05CCFA6CF5F3FECF3983EDCF38695779516
S1130DF06795B795F795E7959F5FC1F7FE2B880F29
S1130E00911D9695879597F90895FA01EE0FFF1FA6
S1130E1030962105310599F16115710561F4803829
S1130E20BFE39B0749F168949038810561F08038ED
S1130E30BFEF9B0741F0992342F5FF3FE1053105E0
S1130E40210511F1E8940894E795D901AA2329F41E
S1130E50AB2FBE2FF85FD0F310C0FF5F70F4A695E0
S1130E60E0F7F73950F019F0FF3A38F49F779F9381
S1130E700CD00F9007FC905808953EF014CF60E01A
S1130E8070E080E89FE308954FE79F775F934F9367
S1130E903F932F939ED02F913F914F915F9152DFBB
S1130EA005C019F40EF0F9CE42CFFDCE26DFC8F30B
S1130EB09638C0F707F80F92E8942BE33AEA48EB28
S1130EC05FE74EDF0F920F920F924DB75EB70F920E
S1130ED0C0D0E6E2F0E016D04F915F91EF91FF9120
S1130EE0E595EE1FFF1F49F0FE57E0684427EE0F1B
S1130EF0441FFA95E1F74195550B32D00F9007FE48
S1130F0026C00895DF93CF931F930F93FF92EF9220
S1130F10DF927B018C01689405C0DA2EEF011EDF9D
S1130F20FE01E894A5912591359145915591AEF333
S1130F30EF01CADDFE019701A801DA9479F7DF9089
S1130F40EF90FF900F911F91CF91DF9108959B0136
S1130F50AC0160E070E080E89FE3AEC09ECE14C1B7
S1130F60CCDEE8F39923D9F3940F511DBBF39150D0
S1130F70504094F059F0882332F0660F771F881F91
S1130F8091505040C1F79E3F510544F7880F911D81
S1130F909695879597F908955F3FACF0983E9CF03D
S1130FA0BB27869577956795B79508F4B1609395B7
S1130FB0C1F7BB0F58F711F460FFE8CF6F5F7F4FA5
S1130FC08F4F9F4FE3CFB4CE0EF0DEC06CCE68944B
S1130FD064CE93DEC8F39923D1F3C6F3DF93CF93A2
S1130FE01F930F93FF92C92FDD2788232AF021979F
S1130FF0660F771F881FDAF720E030E040E85FEBE8
S11310009FE3883920F0803E30F021968F774BDDC6
S1131010EEE4F0E003C047DDEBE7F0E073DF8B01C3
S1131020BE01EC01FB2E6F5771097595771F880B74
S1131030990BD4DD28E132E741E35FE38FDEAF2D86
S11310409801AE01FF900F911F91CF91DF913CDD8C
S11310503BCEFA01DC01AA0FBB1F9B01AC01BF57B9
S113106028F422273327442750781FC0B75188F427
S1131070AB2F0024469537952795011CA395D2F3F1
S1131080002069F0220F331F441FB395DAF30DD00B
S113109009CD61307105A0E88A07B94630F49B0197
S11310A0AC016627772788279078309621F0208333
S11310B031834283538308950CD006CEFEDD40F085
S11310C0F5DD30F021F45F3F19F0E7CD511130CE5A
S11310D0EACD0BDE98F39923C9F35523B1F3951B9D
S11310E0550BBB27AA2762177307840738F09F5F45
S11310F05F4F220F331F441FAA1FA9F333D00E2EB4
S11311003AF0E0E830D091505040E695001CCAF720
S113111029D0FE2F27D0660F771F881FBB1F2617E5
S113112037074807AB07B0E809F0BB0B802DBF01B8
S1131130FF2793585F4F2AF09E3F510568F0ADCDCD
S1131140F7CD5F3FECF3983EDCF386957795679592
S1131150B795F7959F5FC9F7880F911D9695879569
S113116097F90895E1E0660F771F881FBB1F621788
S113117073078407BA0720F0621B730B840BBA0B46
S1131180EE1F88F7E09508959F3F31F0915020F4C9
S1131190879577956795B795880F911D969587954F
S11311A097F9089597FB072E16F4009406D077FD5F
S11311B008D00BD007FC05D03EF4909581959F4F45
S11311C00895709561957F4F0895AA1BBB1B51E14B
S11311D007C0AA1FBB1FA617B70710F0A61BB70BA3
S11311E0881F991F5A95A9F780959095BC01CD0148
S11311F00895EF920F931F93CF93DF93E80147FD78
S113120002C034E001C034E1042E000C550B57FF3A
S113121003C0519541955109E32E022F242FAE01AD
S113122007D0CE01DF91CF911F910F91EF900895D8
S1131230A9E0B0E0EDE1F9E030C26A01122FB02E6E
S11312402BE3201720F0FF24F394F00E02C02CE3CC
S1131250F22E0F2D27E0AE014F5F5F4F40D1BC014E
S11312604981842F8970813031F0E1FC06C0E0FEB1
S113127006C090E205C09DE203C09BE201C090E07D
S11312805E2D507143FF3CC0911102C083E001C048
S113129084E0811718F4212F281B01C020E051118C
S11312A00BC0F601822F30E2882319F0319381506C
S11312B0FBCFC20ED11C20E0992329F0D6019C93C8
S11312C0F60131966F01C6010396E2FE0AC03EE4C0
S11312D0D6013C9341E411964C93119712963C939A
S11312E006C03EE6F601308341E641833283FC01C9
S11312F0322F40E2332309F442C041933150FACFF4
S113130042FF44C0911102C083E001C084E0811710
S113131018F4212F281B01C020E051110BC0F60145
S1131320822F30E2882319F031938150FBCFC20E13
S1131330D11C20E0992329F0D6019C93F601319623
S11313406F01C6010396E2FE0BC039E4D6013C935B
S11313503EE411963C93119736E412963C9307C0F1
S113136039E6F60130833EE6318336E63283FC010A
S1131370322F40E2332319F041933150FBCFFC016B
S1131380E20FF11D10828EEF9FEFA6C021E030E046
S1131390911102C020E030E0161617061CF4FB0180
S11313A0319602C0E1E0F0E02E0F3F1FBB2021F098
S11313B0EB2DF0E0319602C0E0E0F0E02E0F3F1F8D
S11313C0E12FF0E02E173F071CF4121B212F01C060
S11313D020E08E2D887159F4F601822F30E28823A3
S11313E019F031938150FBCFC20ED11C20E0992318
S11313F029F0D6019C93F60131966F0151110BC06F
S1131400F601822F90E3882319F091938150FBCF4A
S1131410C20ED11C20E00F2D060F9A81342F30719B
S113142044FF03C0913309F40150101624F4093029
S113143018F008E001C001E0AB0177FF02C040E012
S113144050E0FB01E41BF50BA1E0B0E0AC0FBD1FC5
S1131450EA0FFB1F8EE2A82E4B01801A91080B2D78
S113146010E01195019511094F3FBFEF5B0721F47F
S1131470D601AC9211966D01641775072CF0841691
S1131480950614F4818101C080E3415051093196DD
S1131490D60111967D014017510724F0D6018C9393
S11314A06701E2CF6417750739F4963320F4953356
S11314B019F4311101C081E3F6018083F701822F11
S11314C090E2882319F091938150FBCFF701E20F4A
S11314D0F11D108280E090E02996ECE0FAC02830FB
S11314E008F027E03327DA01990F311D87FD916059
S11314F000966105710539F432602E5F3D9330E347
S11315002A95E1F708959F3F30F080387105610511
S113151009F03C5F3C5F3D93913008F08068911D79
S1131520DF93CF931F930F93FF92EF92192F987F1E
S11315309695E92F96959695E90FFF27EE5FFE4F56
S113154099273327EE24FF24A701E7010590089487
S1131550079428F4360FE71EF81E491F511D660F25
S1131560771F881F991F0694A1F70590079428F404
S1131570E70EF81E491F561FC11D770F881F991FBC
S1131580661F0694A1F70590079428F4F80E491FE6
S1131590561FC71FD11D880F991F661F771F0694FA
S11315A0A1F70590079420F4490F561FC71FD81FB1
S11315B0990F661F771F881F0694A9F784911095C9
S11315C0177041F0D695C79557954795F794E794CA
S11315D01A95C1F7E8EAF0E06894159015913591F1
S11315E06591959105907FE27395E118F10A430B9B
S11315F0560BC90BD009C0F7E10CF11E431F561F4F
S1131600C91FD01D7EF4703311F48A95E6CFE89497
S1131610015030F0080F0AF40027021708F4202FB5
S11316202395022F7A3328F079E37D932A95E9F7FD
S113163010C07D932A9589F60694979567953795FA
S113164017951794E118F10A430B560BC90BD009EF
S113165098F023957E9173957A3308F070E37C9328
S11316602013B8F77E9170617D9330F0839571E318
S11316707D9370E32A95E1F71124EF90FF900F9189
S11316801F91CF91DF91992787FD909508952F920F
S11316903F924F925F926F927F928F929F92AF92FE
S11316A0BF92CF92DF92EF92FF920F931F93CF934B
S11316B0DF93CDB7DEB7CA1BDB0B0FB6F894DEBFE2
S11316C00FBECDBF09942A88398848885F846E8408
S11316D07D848C849B84AA84B984C884DF80EE8052
S11316E0FD800C811B81AA81B981CE0FD11D0FB65B
S11316F0F894DEBF0FBECDBFED010895F894FFCF7F
S113170053743A004300683A00250043743A0000D9
S9030000FC
